:03210000022103B6
:10215C0002215F1221C680FE759850758920758DFD
:10216C00FDD28ED29922AA83E582900000F0A3EAD8
:10217C00F0900000E0FAA3E0FB7C007D008C068D63
:10218C0007C3EE9AEF9B50070CBC00F10D80EE22BA
:10219C002098FDAA99C2988A822210980280FB8509
:1021AC00998222E582900002F03099FD900002E0C5
:1021BC00F599C29922C296C2972212216412219CCF
:1021CC00E582FAFB3395E0FCC002C003C00474E660
:1021DC00C0E07423C0E01222BEE58124FCF581D05E
:1021EC0002BA46028028BA4C03022282BA520280FA
:1021FC0059BA53028041BA66028013BA6C030222A8
:10220C0082BA72028044BA7302802C0222AE740726
:10221C00C0E07424C0E01222BE15811581D296D282
:10222C00979013881221727413C0E07424C0E012CA
:10223C0022BE15811581221221C17413C0E07424B1
:10224C00C0E01222BE1581158122741CC0E07424DA
:10225C00C0E01222BE15811581D296C297901388C8
:10226C001221721221C17413C0E07424C0E0122236
:10227C00BE15811581227426C0E07424C0E01222A0
:10228C00BE15811581C296D29790138812217212B5
:10229C0021C17413C0E07424C0E01222BE15811554
:1022AC008122742FC0E07424C0E01222BE15811567
:0222BC0081227D
:1023E6000A0D5468652072656365697665642063C5
:1023F60068617261637465722069732025640A0DD1
:10240600000A0D464F52574152440A0D000A0D5319
:10241600544F500A0D000A0D52494748540A0D0000
:102426000A0D4C4546540A0D000A0D496E76616C3C
:0B243600696420696E7075740A0D0067
:06213200E478FFF6D8FD81
:102110007900E94400601B7A00902441780375A09F
:1021200000E493F2A308B8000205A0D9F4DAF2752E
:02213000A0FF0E
:1022BE00C008858108E50824FDF8868318868218F3
:1022CE00E493A324DB600C242560051223AB80F07D
:1022DE000223C3D2D5E493A3C083C082B473148601
:1022EE00F0188683188682181223C66053A3122311
:1022FE00AB80F5B46307E6181223AB8043B46417C2
:10230E00E630E74618E6F42401F608E6F43400F663
:10231E00742D1223AB8033B4782D868318868218E1
:10232E00E412239CE58312239BE58312239CE58212
:10233E0012239BE58212239C30D50574301223ABF9
:10234E00D082D0830222CEB475F6E6FA18E6F918DA
:10235E007C107D27122386FF7CE87D03122386C422
:10236E00F5837C647D001223864283E975F00A842E
:10237E00C445F0F582EF80A97B000BC3E99CF9EA16
:10238E009DFA50F61BE92CF9EA3DFAEB22C4540FE4
:10239E00700320D51FC2D52490D43440D4C083C03E
:1023AE0082C0F0F582E8C0E01221AFD0E0F8D0F0A4
:0823BE00D082D08322D0082256
:102138007800E84400600A790075A000E4F309D843
:10214800FC7803E84400600C7901900000E4F0A3F7
:04215800D8FCD9FADC
:0D2103007581081223E2E582600302215F6E
:1023C60020F71430F6148883A88220F507E6A88340
:1023D60075830022E280F7E49322E02275820022D0
:00000001FF
